S014000052616E67655F66696E6465722E737265634C
S11300000C942A000C9447000C940B010C944700A8
S11300100C9447000C9447000C9447000C94470040
S11300200C9447000C9447000C943B010C9447003B
S11300300C9447000C9447000C9447000C94470020
S11300400C9447000C9447000C9447000C94470010
S11300500C94470011241FBECFE5D8E0DEBFCDBF0E
S113006010E0A0E6B0E0E0E4F5E002C005900D92F7
S1130070A237B107D9F720E0A2E7B0E001C01D9292
S1130080A038B207E1F70E9492000C949E020C94EF
S11300900000929A00000000929808951ABA919A6A
S11300A09098CF990E9449008FEF8ABB0895CF930F
S11300B0C82F0E944E00CBBB82B38C7F82BB0E94B0
S11300C049001BBACF910895CF93C82F0E944E00C8
S11300D0CBBB909A91980E9449001BBACF91089586
S11300E0CF93DF93EC018881882379F021960E94D5
S11300F064002FEF85EA9EE0215080409040E1F7B4
S113010000C0000089918111F2CFDF91CF91089551
S11301104AE062E770E00E94690282E790E00E9490
S11301207000089582E084BB81B3876781BB8BB77D
S113013080688BBF85B7846085BF84E08CBF89B736
S1130140826089BF88E30E9457002FEF89E698E117
S1130150215080409040E1F700C000008FE00E94F1
S11301605700789483B78B6083BFA99A80E690E0A8
S11301700E9470002FEF83ED90E321508040904067
S1130180E1F700C0000060917E0070917F00882735
S113019077FD8095982F0E947A0126E933E44BE895
S11301A05DE30E94DE010E94470170937B0060932F
S11301B07A00CB010E9488002FEF89E698E1215054
S11301C080409040E1F700C000008EE690E00E947D
S11301D070002FEF83ED90E3215080409040E1F7D1
S11301E000C0000081E00E9457002FEF89E698E1EB
S11301F0215080409040E1F700C0000082E00E945E
S113020057002FEF89E698E1215080409040E1F7B4
S113021000C00000A7CF1F920F920FB60F921124B7
S11302208F939F9380917C0090917D00019769F456
S11302301EBC8CB59DB590937F0080937E001DBC41
S11302401CBC10927D0010927C0080917C009091E7
S11302507D00892B49F48EB583608EBD81E090E0EA
S113026090937D0080937C009F918F910F900FBE9F
S11302700F901F9018951F920F920FB60F92112492
S1130280A99813BE0F900FBE0F901F90189504D01D
S11302906894B1118DC0089570D088F09F5790F084
S11302A0B92F9927B751A0F0D1F0660F771F881F97
S11302B0991F1AF0BA95C9F712C0B13081F077D0FE
S11302C0B1E0089574C0672F782F8827B85F39F09C
S11302D0B93FCCF3869577956795B395D9F73EF4F6
S11302E090958095709561957F4F8F4F9F4F08959E
S11302F0E89409C097FB3EF49095809570956195BC
S11303007F4F8F4F9F4F9923A9F0F92F96E9BB2771
S11303109395F695879577956795B795F111F8CFED
S1130320FAF4BB0F11F460FF1BC06F5F7F4F8F4F58
S11303309F4F16C0882311F096E911C0772321F04E
S11303409EE8872F762F05C0662371F096E8862FE6
S113035070E060E02AF09A95660F771F881FDAF73D
S1130360880F9695879597F9089557FD9058440FEF
S1130370551F59F05F3F71F04795880F97FB991F00
S113038061F09F3F79F087950895121613061406BD
S1130390551FF2CF4695F1DF08C01616170618064A
S11303A0991FF1CF86957105610508940895E89425
S11303B0BB2766277727CB0197F908950BD078C020
S11303C069D028F06ED018F0952309F05AC05FC0A8
S11303D01124EECFCADFA0F3959FD1F3950F50E01F
S11303E0551F629FF001729FBB27F00DB11D639FE3
S11303F0AA27F00DB11DAA1F649F6627B00DA11D89
S1130400661F829F2227B00DA11D621F739FB00D2E
S1130410A11D621F839FA00D611D221F749F33279E
S1130420A00D611D231F849F600D211D822F762F37
S11304306A2F11249F5750408AF0E1F088234AF034
S1130440EE0FFF1FBB1F661F771F881F9150504080
S1130450A9F79E3F510570F014C0AACF5F3FECF39B
S1130460983EDCF3869577956795B795F795E7956C
S11304709F5FC1F7FE2B880F911D9695879597F97D
S1130480089597F99F6780E870E060E008959FEF12
S113049080EC089500240A94161617061806090617
S11304A0089500240A9412161306140605060895E6
S11304B0092E0394000C11F4882352F0BB0F40F46E
S11304C0BF2B11F460FF04C06F5F7F4F8F4F9F4FAE
S11304D00895BB274A3031F4992322F4BDE2909564
S11304E081959F4F0C947502BB27FB015527AA27C2
S11304F0880F991FAA1FA41710F0A41B83955051AD
S1130500B9F7A05DAA3308F0A95DA193009779F724
S1130510B111B1931192CB010C948E02DC01FC0158
S1130520672F71917723E1F7329704C07C916D9323
S113053070836291AE17BF07C8F30895F894FFCF94
S113054054686520446973742E2069733A00636D9E
S10505500000A5
S9030000FC
